:020000040800F2
:1000000010040020D5000008190F00083D0E00085C
:1000100000000000000000000000000000000000E0
:10002000000000000000000000000000210F000898
:1000300000000000000000001F0F0008230F000850
:10004000E7000008E7000008E7000008E7000008F4
:10005000E7000008E7000008E7000008E7000008E4
:10006000E7000008E7000008E7000008E7000008D4
:10007000E7000008E7000008E7000008E7000008C4
:10008000E7000008E700000800000000E7000008A3
:10009000E7000008E7000008E7000008E7000008A4
:1000A000E7000008E7000008E7000008E700000894
:1000B000E700000800000000E7000008044885464B
:1000C00000F058FA00480047051B0008C046C0462B
:1000D000100400200448804704480047FEE7FEE77C
:1000E000FEE7FEE7FEE7FEE7850F0008BD0000081B
:1000F00030B50B46014600202022012409E00D46C0
:10010000D5409D4205D31D469540491B2546954047
:1001100040191546521E002DF1DC30BDF0B51FB45C
:100120000646002082B005464024019100901BE065
:10013000019922460F46304600F020F8049A059BAC
:10014000801A994110D310461946224600F039F81A
:10015000361A8F410197224601200021009F00F0AE
:1001600030F838184D4100902046641E0028DFDC2E
:10017000019B00982946324607B0F0BD10B5202AF1
:1001800004DB0846203AD040002110BD0B46D34086
:10019000D0402024A21A91400843194610BDD2B283
:1001A00001E00270401C491EFBD270470022F6E7B6
:1001B00010B513460A4604461946FFF7F0FF2046DD
:1001C00010BD10B5202A04DB0146203A91400020E2
:1001D00010BD914020239C1A0346E34019439040F0
:1001E00010BD0000F0B507460846584087B0C00F64
:1001F000049048000E46590040084908BC1A88413E
:1002000005D2384631461E4617460B460246580070
:10021000400810434DD0300D039040055900400D6B
:10022000490D0590401A0290402873DA1803012105
:10023000000B09050843019004980092002806D09D
:100240001146019A49420020904100910190029884
:1002500040210A1A01990098FFF7B3FF05460C46A2
:100260006B4607CB00F098F9C0197141039A0E0D47
:100270000023D71756401A467A40164344D0049AB2
:10028000002A2DD0029A012A039A15DC1205C01A01
:10029000914101263605001C7141D20F059ED207FF
:1002A0000093019202962A46234600F095F907B082
:1002B000F0BD38463146FAE71605234A0F46B21814
:1002C000C01AB74101210905001C4F4100187F41A8
:1002D000114618187941E20F10436D19644113E07B
:1002E000E2076D0815436408C2071443039A012608
:1002F0001205C01A91413605001C7141CE07400815
:1003000030434908C01851412A46234600F057F9A6
:10031000CDE7FFE7049801224000C117121A00231D
:100320008B4104983146C417381AA141EEE730B426
:100330000124E407634030BC54E730B40124E407EF
:10034000614030BC4EE700000000E0FFF0B51FB494
:1003500088B00B990998002448400999C00F4900BA
:1003600049080991C0070B990090490049080B9171
:1003700009990898A64608431CD00B990A98084387
:1003800018D0099801244000420D4800410D0998F9
:1003900024050003000B204309900B980003000B79
:1003A00020430B9050181C4940180022019014461D
:1003B000104605E0002001460DB0F0BD032801DA2B
:1003C000034600E003239C46C11A0AAE0AE05F0020
:1003D00008ADED5B4F00F75B7D430027AA187C4119
:1003E000491C5B1E6145F2DD410004AB5A522104F9
:1003F000120C0A43240C401C0828DFDB01980290F1
:100400000099704601910090059B049A07990698FF
:1004100000F0E2F8D0E700000DFCFFFFF0B50C465D
:100420005C4085B0E40FE40703944C0000266408A8
:1004300059009446490802460296224321D062465A
:100440000A431ED06200570D4A000E032303550DC8
:10045000012402462C492405781B1B0B360B40183F
:1004600023432643614600901C46501AB44103D3EF
:100470000098401C009002E0921800985B41002810
:1004800003DA0020014605B0F0BD00200121090576
:100490000746864611E064461D46141BB54106D347
:1004A0006546521BB341744607430C43A646CD072D
:1004B00040084908284392185B4105460D43EAD19C
:1004C0001046184313D06046194650407140084307
:1004D00006D06046101AB34106D20122002306E07E
:1004E00000220123DB0702E00122D24353100098CF
:1004F00074460105381C6141029C039D0019694145
:1005000000F05DF8BFE70000FD0300004A000903AA
:100510000123090B1B0519430A4B10B5520D9A42D2
:1005200002DA0020014610BD064B34339A4203DC48
:100530009A1AFFF723FE10BD034BD218FFF741FEB6
:1005400010BD0000FF030000CDFBFFFF10B5002928
:1005500004DB0124E40740428C412146002B04DBEC
:100560001C460123DB075242A341994200D190422D
:1005700010BD0000064C0125064E05E0E36807CCDF
:100580002B430C3C98471034B442F7D3FFF79AFD45
:10059000881B0008A81B000810B5202A06DBCB1713
:1005A0000846203A1041C1170B4306E00B461341A1
:1005B000D0402024A21A91400843194610BD10B51E
:1005C000002B08DA0024401C614192185B411A4359
:1005D00001D14008400010BDF0B51FB482B00546FF
:1005E0000C0003D0084600F0E1FC02E000F0DEFC65
:1005F00020300246009021462846FFF7E2FD049B8A
:10060000059A04460F4618431143084314D0184670
:1006100010431BD0009840210A1A18460599FFF78D
:10062000ADFD05460E46009A05990498FFF7C9FDF1
:10063000084305D0012004E02046394607B0F0BD4C
:100640000020C11705430E432C43374300990E98F1
:100650006305401A7905E40A00220C43FD0A0A30BA
:1006600002D500200146E9E70105101969410C9CFB
:100670000D9D00196941FFF7A2FFDFE770B5044641
:1006800000F0BCF80546601C02D00448007824182D
:1006900000F0B4F8401BA042FAD370BD0000002067
:1006A000F8B5002292E0012797403B407ED04C688D
:1006B000012C05D0022C03D0112C01D0122C10D10A
:1006C000856854000326A640B543CE68A6402E4355
:1006D000866044680D79BC43ED06ED0F95402543D7
:1006E0004560C66855000324AC408F68A643AF4000
:1006F0003743A646C7604C68022C01D0122C0ED19D
:10070000D408A4002418276AA4465607F40E0F261E
:10071000A640B7430E69A6403E436446266206687B
:100720007446A6430C79A407A40FAC40344304607C
:100730004C68E40049D5284CA56901263543A561DC
:10074000A469950834400094244CAD002F19BD686D
:100750009407240F0F26A640B5430926F606B0429B
:1007600001D100260FE01E4EB04201D101260AE061
:100770001C4EB04201D1022605E01B4EB04201D111
:10078000032600E00526A6402E43BE60174D2C68C8
:100790004E689C43F60300D51C432C606C684E6881
:1007A0009C43B60300D51C436C6000E00DE0AC68D0
:1007B0004E689C43F60200D51C43AC60EC684E6862
:1007C0009C43B60200D51C43EC60521C0B681C46CF
:1007D000D44000D067E7F8BD00100240000001409F
:1007E0000004004800080048000C004800040140D4
:1007F000002A01D08161704781627047014880689A
:1008000070470000000000200248816802788918C3
:10081000816070470000002010B506480168102272
:1008200011430160002000F007F800F027F80020D5
:1008300010BD00000020024070B504460D4D7D2023
:100840002978C000FFF754FC01460B480068FFF709
:100850004FFC00F0DBFA002809D1042C07D200225B
:100860002146401E00F01EF800206C6070BD012083
:1008700070BD0000000000200C00002008B50848F2
:100880008169012211438161816911400091C2692E
:1008900001040A43C261C0690840009008BD00001D
:1008A0000010024010B500F0B1FB10BD7047000011
:1008B000F8B50D4604005AD03A480068C007C00F8A
:1008C000A8420AD237480168490849002943016013
:1008D0000068C007C00FA84249D12068324E810786
:1008E0000CD5400704D570680721090208437060E1
:1008F0007068F0218843A168084370602078C007C1
:1009000025D0606801280ED0316802280ED08907F2
:1009100000292CDA71688908890001437160FFF7AA
:100920006DFF07460CE031688903F1E78901EFE7C5
:10093000FFF764FFC11B1D48814201D90320F8BDA8
:1009400070680C210840616889008842F0D1154820
:100950000168C907C90FA9420BD9016849084900B4
:10096000294301600068C007C00FA84201D00120E0
:10097000F8BD2078400706D5706807210902884332
:10098000E1680843706000F021F87168084A0906C0
:10099000090F515CC840074908600020FFF74CFF71
:1009A0000020F8BD00200240001002408813000023
:1009B000771B00080C000020034801680122D204C4
:1009C00011430160704700000010024010B514A0F0
:1009D0000FC888B06C460FC415A00FC80FC4184AC2
:1009E00053680C20194601401648042916D00829DE
:1009F00014D19902090F6C46645CD16A04AA0907F4
:100A0000090F525CD90305D500231946FFF786FB71
:100A1000214601E020460C4900F0DFFA08B010BD85
:100A200002030405060708090A0B0C0D0E0F10102F
:100A30000102030405060708090A0B0C0D0E0F102E
:100A40000010024000127A0000093D0010B5044C6D
:100A5000A068000603D5FFF729FF8020A07210BD13
:100A600000100240FEB5040076D02078E44DC007A7
:100A700053D068680007800F012807D06868000716
:100A8000800F022809D16868C00306D52868800352
:100A900043D560680028E7D03FE06068012813D0A4
:100AA00001218904002814D0052818D02A6888104C
:100AB00082432A602868884328606068002820D024
:100AC000FFF79CFE064618E0286801210904084348
:100AD000F2E728680122120490432860EAE72868B8
:100AE0000843286029680120000401432960E4E7E5
:100AF000FFF784FE801B642875D828688003F7D52B
:100B00000BE0FFF77BFE064604E0FFF777FE801B55
:100B10006428F1D828688003F7D42078012680075C
:100B2000002843DA68680007800F07D0686800076C
:100B3000800F022811D16868C0030ED4286880078E
:100B400002D5E068012807D12868F8218843216987
:100B5000C9000843286029E04DE1E06800282868C2
:100B600015D030432860FFF749FE074604E0FFF741
:100B700045FEC01B0228BFD828688007F7D5296822
:100B8000F82081432069C000014329600EE040083D
:100B900040002860FFF732FE074604E0FFF72EFE14
:100BA000C01B0228A8D828688007F7D4207800073F
:100BB00022D5E0690028686A0ED030436862FFF7EA
:100BC0001DFE074604E0FFF719FEC01B022893D85C
:100BD000686A8007F7D50FE0400840006862FFF7B9
:100BE0000DFE074605E09DE0FFF708FEC01B02284A
:100BF0008FD8686A8007F7D4207804274007002838
:100C000060DA00200190E869C00008D4E969B806FC
:100C10000143E961E96901400120009101907948AF
:100C20000168C90511D40168821511430160FFF7FD
:100C3000E5FD009005E0FFF7E1FD0099401A64280A
:100C400070D870480068C005F5D5A06801280AD0A2
:100C5000002801D0052810D0286A400840002862EA
:100C6000286AB84301E0286A30432862A068002857
:100C700012D0FFF7C3FD00900AE0286A38432862CB
:100C8000F1E7FFF7BBFD0099411A5F48814249D85F
:100C9000286A8007F5D50DE0FFF7B0FD009006E06B
:100CA000FFF7ACFD0099411A574881423AD8286AAB
:100CB0008007F5D40198002804D0E86901210907CC
:100CC0008843E8612078C00635D5606901280CD0DA
:100CD000401D686B23D038436863686B4008400050
:100CE0006863FFF78BFD064622E0686B3843686354
:100CF000686B30436863FFF781FD064604E0FFF749
:100D00007DFD801B02285BD8686B8007F7D5686B78
:100D1000F8218843A169C900084368630BE0B84320
:100D20006863F4E74CE0FFF769FD801B022847D8B1
:100D3000686B8007F7D4206A00285ED069680907CD
:100D4000890F022942D001273F060228286805D0D2
:100D5000B8432860FFF752FD044633E0B8432860EB
:100D6000FFF74CFD064604E0FFF748FD801B022814
:100D700026D828688001F7D4E86AE16A00090001F2
:100D80000843E862616AA06A084369683D22120468
:100D9000914308436860286838432860FFF72EFDB8
:100DA000044604E0FFF72AFD001B022808D8286843
:100DB0008001F7D521E0FFF721FD001B022801D9B2
:100DC0000320FEBD28688001F5D416E00128F8D084
:100DD0006868E96A01221204636A02409A420AD1F1
:100DE0000907E26A090F914205D10F2189040840E1
:100DF000A16A884201D00120FEBD0020FEBD000096
:100E0000001002400070004088130000094910B52E
:100E1000401E884201D9012010BD074C60610321AA
:100E2000081F00F0F3F80020A061072020610020D7
:100E300010BD0000FFFFFF0000E000E0FEE7000043
:100E4000F0B587B014216846FFF7B0F92E48426923
:100E50000121C9040A43426142690A40059242697C
:100E6000C9000A43426142690A4005924269491138
:100E70000A4342614069254F0840FF210590002246
:100E800009023846FFF7B4FC0122F0213846FFF78B
:100E9000AFFC0122D60309203146C006FFF7A8FCAB
:100EA0001B48002401250090029469460195039493
:100EB0003846FFF7F5FB0F20009001946946029435
:100EC0003846FFF7EDFB602000900220032701A9C0
:100ED00091C109206946C0060494FFF7E1FBC020D8
:100EE0000090122001AAA1C269460A48FFF7D8FB68
:100EF000092002946946C006009601950394FFF705
:100F0000CFFB07B0F0BD0000001002400008004811
:100F1000F0FF000000140048FFF798FDFEE770475F
:100F2000704710B5FFF770FC10BD30B591B030219F
:100F30006846FFF73BF900240120009001900E94D1
:100F4000000409900F9400010D9402250A900C945E
:100F500008950B946846FFF785FD002801D072B60E
:100F6000FEE707200C900E9401210D950F940CA81C
:100F7000FFF79EFC002801D072B6FEE7FFF71CFDCC
:100F800011B030BD7047000037B514460846064B17
:100F90006A46214600F026F904466946002000F022
:100FA000BFFC20463EBD0000211900082021020C94
:100FB00001D010211046020A01D01046083902095A
:100FC00001D01046091F820801D01046891E420830
:100FD00001D0881E7047081A7047F8B5040C8BB210
:100FE000264682B25E430D0C1046370C5843360439
:100FF00080190021794116466E43370C360480195A
:10100000794126466E438919F8BD00008307FF2207
:10101000DB0E9A408907090E9940002808DB8308F7
:1010200009489B001818036893430B4303607047FB
:101030000007000F0838830804489B001818C3698C
:1010400093430B43C361704700E400E000ED00E010
:1010500002E008C8121F08C1002AFAD17047704781
:10106000002001E001C1121F002AFBD170470000DF
:10107000F0B51FB486B00998089A030D0021024309
:1010800014D05148514A181850430514119801289A
:1010900010981AD0281A401C00264D4F4D49009632
:1010A00001910490002812DA444211E011980124C1
:1010B00049A3012801D11098C1430698119A846070
:1010C0000360C26041600BB0F0BD4042E4E70446FB
:1010D000210500203F4A001C51410391029012E07B
:1010E000E00707D032463B4601990098FFF72EF9FA
:1010F0000191009032463B4610461946FFF726F90B
:1011000006460F466410002CEAD10498039B002881
:10111000029A0999089806DAFFF718F9019B009AD4
:10112000FFF714F905E0FFF779F9019B009AFFF743
:1011300075F904460E460022284BFFF707FA03D83C
:101140000020C043014607E00022254B20463146DF
:10115000FFF748F8FFF7DAF9102409E0002C0ADB62
:101160000A220023FEF7DAFF079B30321A55641E6D
:1011700002460A43F2D11122641C079B121B1C1960
:10118000119B012B03D0012308430ED10AE0084331
:1011900004D0112010900020119077E71098151AB4
:1011A0006D1E0BE01098824202DD00236D1C03E0EF
:1011B000824201DA00236D1E002BEED006981199B1
:1011C0008260C16030C07EE701FCFFFF104D00006F
:1011D000000014400000F03F300000000000F04329
:1011E0000000E03FFFB597B0064600251BE225282A
:1011F00076D100242746F749049400E00443761C86
:1012000032780120203A90400842F7D130782A28DD
:101210000ED00222307801463039092916D80499B7
:101220000A235943303940181443761C0490F1E7DF
:10123000189802C804911890002904DA012040038C
:1012400004434842049002200443761C30782E2840
:1012500014D1042004437078761C2A2809D11898E8
:10126000761C80C8189009E00A214F43303FC71907
:10127000761C3078014630390929F5D930786C2848
:1012800010D006DC4C281AD068280ED06A2817D156
:1012900004E0742813D07A2812D110E00120400510
:1012A00004430CE00121090501E0032109050C4379
:1012B0007178814203D1012000052418761C761C28
:1012C000307866280BD013DC58287DD009DC002844
:1012D0007BD04528F6D04628F4D047281AD1A9E17A
:1012E00018E0632835D0642870D0652812D1A1E1B8
:1012F00070286CD008DC6728F1D069287DD06E2872
:101300000DD06F2806D1BCE073282ED0752873D07D
:10131000782859D01A9A199990476D1C82E1600279
:10132000400F022809D003280DD00428189801681E
:101330000DD00D60001D189074E11898EA1701682F
:101340000D604A60F6E7189801680D80F2E70D70AD
:10135000F0E718986A4601781172001D1890002075
:10136000507202A80090012005E0189802C8189059
:1013700000200091C04361070ED5002101E00199D2
:10138000491C0191B94213DA8142F8DB019A0099B4
:10139000895C0029F3D10BE0002101E00199491C8F
:1013A00001918142FADB019A0099895C0029F5D10B
:1013B000019904981A9B471A21463846199A00F059
:1013C00099FA4019019903E051E030E115E050E04D
:1013D000451807E0009800990078491C00911A9A76
:1013E000199990470198401E0190401CF2D1214666
:1013F00038461A9B199A12E137E00A200021009022
:1014000001916002410F022907D0189A01CA18926F
:10141000C2179446032908D00AE01898C01DC108D5
:10142000C90005C91891944607E000B2C217944656
:10143000042902D140B2C1178C460022614694456E
:1014400006DA0A460021404291418C462D2102E0F5
:10145000210504D52B216A461173012103E0E10720
:1014600001D02021F7E7029156E00A200AE010207F
:1014700008E0102000900021042004430191082777
:1014800003E008200021019100906002410F022931
:1014900007D0189A01CA189200229446032908D04E
:1014A00008E01898C01DC108C90005C918919446E4
:1014B00003E080B2042900D1C0B2002102912107CB
:1014C0002AD531780D91702906D0009A1021019B00
:1014D0004A401A4305D00EE040216A4611730121AB
:1014E00008E06146014306D030216A4611730D9928
:1014F000517302210291009A0821019B4A401A432C
:101500000AD16146014301D1610705D530216A4600
:10151000117301217F1E02913178582904D02EA128
:101520000E910DA90D910DE030A1F9E76146019BE7
:10153000009AFEF7F3FD0E9B8C469B5C0D9A521EA3
:101540000D92137061460143F0D10D9805A9081A58
:1015500020300190600703D501200004844300E09F
:1015600001270198874201DD381A00E00020019927
:1015700000904118029809180498401A0490E0035A
:1015800006D421461A9B199A049800F0B3F945191C
:10159000002706E003A81A9AC05D199990476D1CB0
:1015A0007F1C02988742F5DBE0030CD521461A9B8D
:1015B000199A049800F09EF9451904E01A9A30200F
:1015C000199990476D1C0099481E00900029F5DC80
:1015D0001FE000000928010030313233343536373E
:1015E000383961626364656600000000303132336F
:1015F000343536373839414243444546000000000F
:101600000D980D990078491C0D911A9A19999047D7
:101610006D1C0199481E01900029F1DC4DE100F09C
:1016200059F94519761C3078002800D0DFE52846A6
:101630001BB0F0BD600700D406271898C01DC10874
:10164000C90048680A680831C30FDB071891190000
:1016500001D09CA108E0210501D59BA104E0E10790
:1016600001D09AA100E09AA14300109130785B0864
:1016700065280CD006DC452809D046281DD047280F
:1016800041D141E0662818D067283CD13CE00021D8
:10169000112F01DB112000E0781C0191009008A9B6
:1016A00011A8FFF7E5FC139905910021119A1592F5
:1016B0007F1C12980197009150E00120C007039011
:1016C0000120019008A9009711A8FFF7D1FC139AF7
:1016D000149905920022119B009212981593059A75
:1016E0000192002901D0104602E0791C40180190B7
:1016F000381A01D5019804E04042401E0090781C41
:101700000190C01B029043E0012F00DA0127002165
:10171000112F01DD112000E038460191009008A949
:1017200011A8FFF7A5FC13990591119A00211298B1
:1017300015920091019721070CD40599B94201DB5C
:10174000019900E00191012904DD159A491E515CBF
:10175000302906D0B84201DA011D05DA01210291D3
:1017600015E00199491EEDE7002805DC00994118B4
:1017700000910199091A03E0019A411C914200DD90
:1017800001910099401A401C02900120C00703906B
:10179000200706D402990198814202DB0020C04351
:1017A000029000206946C87707AF012103980337EC
:1017B000C907884224D0022011902B201290039850
:1017C00000280CDA404203902D20129007E00A21F5
:1017D0000398FEF78DFC30317F1E0390397011990C
:1017E000481E11900029F2DC03980028EFD1791EE1
:1017F000129808703078202108404530BF1E38709C
:1018000006A8C01BC01D039010980078002800D0C7
:101810000120019941180298C01709180398091866
:101820000498401A401E0490E00306D421461A9BF7
:10183000199A049800F05EF845191098007800286D
:1018400003D01A9A199990476D1CE00324D52146BC
:101850001A9B199A049800F04DF845191CE000985D
:10186000002807DB00990598884203DD1598405C45
:10187000199901E0199930201A9A904700986D1C27
:10188000401C00900298401E0290002804D11A9A31
:101890002E20199990476D1C0199481E019000292E
:1018A000DDDC05E038781A9A7F1C199990476D1C89
:1018B0000399481E03900029F4DC21461A9B199ACB
:1018C0000498ACE62D0000002B0000002000000072
:1018D00000000000F8B5044600251E46174688049F
:1018E00004D405E039462020B0476D1C641EF9D5AC
:1018F0002846F8BDFFB50446002581B01E46C80342
:1019000001D5302700E02027880404D505E03846BB
:101910000399B0476D1C641EF9D5284605B0F0BD8B
:101920000A68531C0B601070704700BF704710B5F9
:10193000002802D0401EFEF7A1FE10BD0B4A91699F
:101940003023401E5843814206D30B1A90698842C7
:1019500001D89842FAD8704753695B181B1A9069EE
:101960008842FCD99842FAD87047000000E000E0B5
:1019700001200249C0038861704700000008004848
:1019800070B5124C2068FF210904884320600120B3
:101990008003A0624010A061FFF7C7FF01252D035F
:1019A000A561FFF7C2FFA562FFF7BFFFA561FFF7C3
:1019B000BCFF2069A5620005C00F216855221204F2
:1019C00011432160002800D0012070BD00080048AC
:1019D00010B5054A515C0818401EC1B28020014371
:1019E000002000F05DF810BD721B000810B51D4C02
:1019F00020681D4980B24018206001200003A062C9
:101A0000FFF793FF01208003A0624010A0621E2018
:101A1000FFF78DFF022000F05FF8082000F05CF86F
:101A2000022000F059F8082000F056F82820FFF7AF
:101A300085FF002000F050F80C2000F04DF8282021
:101A4000FFF77CFF002000F047F8012000F044F889
:101A50000220FFF76CFF002000F03EF8062000F0A7
:101A60003BF810BD000800480000555510B504466D
:101A700002E000F005F8641C20780028F9D110BDC0
:101A800010B50A2806D00C2804D00146012000F029
:101A900007F810BD02210120FFF79AFF10BD0000DA
:101AA00070B50C460546FFF76BFF0028FBD10121FE
:101AB00089030848002D01D0816100E08162012185
:101AC00049038162200900F007F82007000F00F0A9
:101AD00003F870BD0008004870B5084C6169084AF9
:101AE00089B21140000208436061FFF71EFF012523
:101AF0002D03A561FFF719FFA56270BD000800481E
:101B0000FFF00000FEF788FEFFF70FFAFFF798F9E5
:101B1000FFF76CFFFFF72CFF01210846FFF758FF86
:101B200005A000F017F802210120FFF751FF06A0E1
:101B300000F010F8FEE700005445535420454C4E89
:101B40005520323300000000534F4C555320585855
:101B5000580000000FB400B587B009AA684608997C
:101B6000FFF712FA6846FFF781FF07B008BC04B020
:101B700018470000400000000000000000000001C5
:101B80000203040607080900A81B00080000002043
:101B90001000000050100008B81B000810000020C2
:101BA00000040000601000080100000004000000B4
:081BB0000000000000127A00A1
:04000005080000BD32
:00000001FF
